:020000041000EA
:1000000000B5324B212058609868022188439860DF
:10001000D860186158612E4B002199600221596106
:100020000121F02299502B49196001219960352056
:1000300000F044F80222904214D00621196600F024
:1000400034F8196E01211966002018661A6600F04E
:100050002CF8196E196E196E052000F02FF8012189
:100060000842F9D1002199601B49196000215960AB
:100070001A491B48016001219960EB211966A021F2
:10008000196600F012F800219960164914480160C1
:100090000121996001BC002800D000471248134993
:1000A000086003C880F30888084703B5996A0420EC
:1000B0000142FBD001200142F8D103BD02B5186610
:1000C0001866FFF7F2FF186E186E02BD00000240BE
:1000D000000000180000070000035F00212200005C
:1000E000F4000018222000A00001001008ED00E03C
:1000F00000000000000000000000000074B24E7A12
:1001000000200420F7010010C3010010C5010010F9
:10011000C1010010C1010010C1010010C101001097
:10012000C1010010C1010010C1010010C701001081
:10013000C1010010C1010010C9010010CB01001065
:10014000CD010010CD010010CD010010CD01001037
:10015000CD010010CD010010CD010010CD01001027
:10016000CD010010CD010010CD010010CD01001017
:10017000CD010010CD010010CD010010CD01001007
:10018000CD010010CD010010CD010010CD010010F7
:10019000CD010010CD010010CD010010CD010010E7
:1001A000CD010010CD010010CD010010CD010010D7
:1001B000CD010010CD010010CD010010CD010010C7
:1001C00000BE00BE00BE00BE00BE00BEEFF3058054
:1001D000103800BEF2EB8871341F0010501F001061
:1001E0003402001090A31AE700201F49086006C8D7
:1001F00081F3088810471D48006800282FD10DA4FE
:100200000ECC002902D000F012F8F9E71849194A7B
:10021000002000E001C19142FCD1174988471749ED
:1002200088471749884700BEFDE701C901C29A42C5
:10023000FBD37047501F0010C0000020C0070020F3
:10024000502600100000042000000420502600105A
:10025000001004200010042000000000704709482E
:1002600001F0F8FA0047000008ED00E0000000D0BF
:10027000C0070020980C0020D11600105503001074
:10028000C11700105756000006005250ABB3605320
:10029000DC1E001006005250861C0302EC1E0010EB
:1002A000060052505422A29DFC1E00100500525020
:1002B000DE65F46850260010F8B5C0460448054BCA
:1002C00010B5834203D0044B002B00D0984710BDDB
:1002D000C0070020C00700200000000006480749B2
:1002E000091A8B10C90FC91810B5491003D0044B57
:1002F000002B00D0984710BDC0070020C007002089
:100300000000000010B5074C2378002B09D1FFF73F
:10031000D5FF054B002B02D0044800E000BF0123AD
:10032000237010BDE80A002000000000801E0010AD
:10033000054B10B5002B03D00449054800E000BF71
:10034000FFF7CCFF10BDC04600000000EC0A002003
:10035000801E001000207047024B18688007C00FF5
:100360007047C04600C0064070B5EFF3108C72B6FF
:100370000D4D2B68002BFCD0BFF35F8F0724CB08FB
:10038000C618C05C01230C40A3401C00044003427B
:1003900007D118433070BFF35F8F2C608CF3108847
:1003A00070BD100001F010FA2C0100D00021044BA8
:1003B000044ABFF35F8F02C39342FAD17047C0462D
:1003C000000100D0800100D0044A1078431CDBB249
:1003D000172B00D9102313707047C046D00200209D
:1003E00001238340002904D0034A1360034A1360A9
:1003F0007047034A1360FBE780E200E000E100E0A1
:1004000080E100E0024B10309B688000C0587047CC
:1004100000ED00E070B50D00EFF3108672B60F4AE4
:100420001368002BFCD0BFF35F8F0D4B10309B681F
:1004300084001B590B4A934203D09D4201D001F026
:10044000DBF9074B9B681D51BFF35F8FBFF35F8FD5
:100450000022024B1A6086F3108870BD240100D080
:1004600000ED00E0CD010010F0B5DE4657464E46E7
:100470004546E0B50C0083B0EFF3108872B65D4AD4
:100480001368002BFCD0BFF35F8F5B4B5B499A680E
:10049000030010339F00D5598D4239D0A5424AD070
:1004A000574EAA1B2F2A33D80122924682409146EA
:1004B0004846544A1268104001904846524A10601B
:1004C000BFF35F8FEFF305829346002A35D0934246
:1004D00001D001F091F92A0053469A439068844272
:1004E00008D175E04B005B189B00F3189868A04298
:1004F00034D01A00062151560029F3DA844253D031
:10050000019B002B26D04A46404B1A603D4B1A6097
:10051000394B9B68DD51BFF35F8FBFF35F8F0022C4
:10052000344B1A6088F3108803B0F0BCBB46B24667
:10053000A946A046F0BD0D00EAE72A0053469A43BB
:1005400090688442D6D1062010561300002809DA9C
:100550000D0031E04A462C4B1A60D9E706201856A8
:10056000002822DB42001118890074188A46A1680D
:100570009960E179D971062161569971002925DBCD
:10058000A488F11A6405241554440919E0240905C6
:10059000490D24022143998013181D4A9B001178AC
:1005A000F31899711070ABE713005946002914D164
:1005B000FF3191711749918015490A789A71164A4D
:1005C0009B1B5B415A43120D0A7099E71349E2E7FE
:1005D0000620105613000028C4DA114A1149D21A15
:1005E000083A5002400D014399800F4952080A43CE
:1005F000DA8085E7240100D000ED00E0CD01001095
:10060000D402002000E100E080E100E080E200E0B0
:10061000960C002001BDFFFFAAAA000001BD00004A
:100620000E03002000F0FFFF00F8FFFF70B5EFF3AE
:10063000058101240443EFF3108C72B6214A13683C
:10064000002BFCD0BFF35F8F1F4B05001F4AED1A34
:100650006D416A43120D1E4D8900AE6852B2765844
:10066000A6421CD00621595691421CD0122159563F
:10067000914222D01E215956914220D02A2159560A
:100680000324914210D0134B19781A708171BFF373
:100690005F8F00220B4B1A608CF3108870BDAB6823
:1006A0000D4C5C50EFE700246100091989005B18CC
:1006B000FF21997109499980E5E70124F4E70224B3
:1006C000F2E7C046240100D0D4020020AAAA00000C
:1006D00000ED00E0960C0020CD01001001BDFFFFF1
:1006E000054B064A1360064A136053609360D3605B
:1006F00013615361936170478080808000E400E063
:1007000004E400E0024B9C466144890001607047AC
:100710004000003410B50400FFF756FE0100200031
:10072000FFF7F0FFFF232371BFF35F8F10BDC046BB
:1007300010B50400FFF748FE01002000FFF7E2FFBC
:10074000FF23A380BFF35F8F10BDC04683680B48B3
:1007500010B58446614462441201090159189B187E
:100760005C684A680120944201D802D00020C0B2DF
:1007700010BD1A680B689A42F9D8F7E7FFFFFF0F20
:100780000A4B1968EFF3108072B60A68002AFCD091
:10079000BFF35F8F1B68BFF35F8F00221A6080F387
:1007A000108840BF002000217047C046800C002008
:1007B000F8B5574645464E46DE46E0B598460CAB82
:1007C0001C780DAB1B78070091469A460568002CF3
:1007D0005AD1AC7B002C3BD0660029683619033E09
:1007E00089194B78AB73002B00D1EB7300238B700E
:1007F0004B700B702B4BE218BB6812019B184A46DA
:100800001A6042465A600A9A9A600B9ADA6000238C
:100810008B704B700B706B7B9B46002B27D022009C
:100820006B685946A86898475B465B005B442A683A
:10083000033B002812D058469619B070D118D35CEB
:10084000002B00D073705B460C706B735C450FD04F
:10085000F0BCBB46B246A946A046F8BDD3189C7072
:100860009119925D002A00D05A705B460B706C7330
:100870004A464346387D00F007FB051E0AD10E9B11
:10088000002BE5D01D70E3E7660029683619033EAA
:100890008919AFE75346002BF1D12100386800F0E9
:1008A00011FDECE7FFFFFF0FF0B5DE4657464E4661
:1008B00045460023E0B58BB00893674B8200D458BF
:1008C00000239B46099000F08FFA02000B0060683D
:1008D000EFF3108A72B6564601680029FCD0B24682
:1008E000BFF35F8F21684F7B8C46002F2ED0A56809
:1008F0005A49A9467918090189444946086849684E
:1009000005000E00AD1A9E41002E5FDD02000B00B7
:10091000099800F0B9FA00230022994600230692B4
:100920000793002398466368BFF35F8F5A461A60A7
:100930008AF310884346002B12D10028C3D10BB094
:10094000F0BCBB46B246A946A046F0BD002300223B
:100950009946002306920793002300209846E2E779
:10096000089B494618023843C047626805000E00DC
:10097000EFF3108A72B61368002BFCD0BFF35F8FC1
:10098000002E40DB2B00334302D02369002B55D1CE
:100990002368D97B002905D01A68480041185218ED
:1009A000033A57709A7B002A00D19F73DF73E26885
:1009B000013FD35D0133D3555B4623616368BFF3C9
:1009C0005F8F5A461A608AF310887CE7002E01D1A7
:1009D000002D9BD10021604600F0F2FB4B461A68C7
:1009E0005B68069207934B469B6898464B46DB68CC
:1009F0009946E368DB19013B1B7808931B0203430C
:100A0000236100208FE72369002BC1D0069A079B42
:100A10008021521BB34109068B4202D30122104BA5
:100A2000524200210491013103914946019141460E
:100A3000200002970091FFF7BBFEBDE700F0D4F95C
:100A40002A00330012184B41802109068B42E8D35B
:100A50000122034B5242E4E7640C0020FFFFFF0F2A
:100A6000FFFFFF7F10B5144C6368002B04D00A21F0
:100A70001248FFF747FE10BD2300114A10212068DD
:100A800000F0BAFA032000F0A3F9032000F06AFA9C
:100A900003200C4900F0B2F9FFF796FC0A4B9C4684
:100AA00003232375D0231B061B6860446375074B23
:100AB00080006060DC60DAE71C030020800C00200E
:100AC0004D070010A908001040000034640C0020FD
:100AD000F0B557464E464546DE46E0B585B0019333
:100AE00010AB1B780600039300239A4698460092A9
:100AF0007268EFF3108B72B61368002BFCD0BFF353
:100B00005F8F3568AC7B002C00D16DE067002B68EF
:100B10003F19033FDB195A78AA73002A00D1EA7300
:100B2000484AA118B268090152180098019910604A
:100B300051600E9991600F99D16042469A705A7037
:100B40001A706B7B9946002B6BD022006B6849466C
:100B5000A86898474B465B004B442A68033B002833
:100B600056D04846D719B870D118D35C002B00D0A6
:100B70007B704B460C706B734C4553D0F3681B195C
:100B8000013B18787368BFF35F8F42461A608BF39E
:100B900010885346002B08D10002204305B0F0BC5A
:100BA000BB46B246A946A046F0BD039B002B46D0EB
:100BB0000E9B00200F99984703000B433FD0040081
:100BC0000D1E1ADA009A019B121BAB410092019391
:100BD00080221206934204D301231B4C5B420093F4
:100BE0000194039B9A4683E77368BFF35F8F1C6091
:100BF0008BF3108801204042D0E700F0F5F8802206
:100C0000001969411206009001919142E9D3E3E78E
:100C1000D3189C70D119D25D002A00D05A704B466F
:100C20000B706C73307D009A019B00F02DF98246A9
:100C30000028A3D02100306800F044FB9EE700208C
:100C4000ACE7C046FFFFFF0FFFFFFF7FF8B50B00CB
:100C500004004168EFF3108572B60A68002AFCD0E0
:100C6000BFF35F8FFF222068D9B2467B1A408E42C5
:100C700007D006685700BF18F619033EB678002E55
:100C800010D0E6681B0AB218013A1278DBB29A4219
:100C90000DD000206368BFF35F8F00221A6085F3D8
:100CA0001088F8BD22699A42F3D12661F1E700F07D
:100CB00009FBEFE770B5EFF3058305000C0084B086
:100CC000002B0FD0104A0020536AA34203D3926A2C
:100CD0000130AA4201D304B070BD1B1B5A1E9341C0
:100CE000D8B2F8E7094E02930193094B0200009332
:100CF00030000B00FFF7ECFE011EE3DD20BF3000EB
:100D0000FFF7A4FFDEE7C046004005401C030020BB
:100D100081070010F0B5EFF30582D6464F464646F0
:100D20001000C0B51038EFF3108872B6214C23685C
:100D3000002BFCD0BFF35F8F0123190081401E4DB3
:100D40001F006963AA461D4D29601D4D2E78AC46D3
:100D50003500C5402F402B4215D053465F6A194BD2
:100D60008500EB589F4218D36246174B8E43EB58D1
:100D70001670BFF35F8F0022226088F31088002B6B
:100D800006D0984704E0BFF35F8F276088F3108890
:100D9000E0BCBA46B146A846F0BD0C4B92009C465A
:100DA000624413681360BFF35F8F0023236088F3EE
:100DB0001088EDE7280100D0004005403C70054058
:100DC000970C0020840C0020080B0020D03F054029
:100DD00010B5034B01001800024AFFF7C5FA10BD19
:100DE000950C0020801E0010034B596A0A00986A77
:100DF000596A8A42FAD170470040054070B5040034
:100E00000D00EFF3108672B61A4A1368002BFCD05F
:100E1000BFF35F8F002D1BD02000FFF7F3FA1649B8
:100E200081420AD02000FFF7F5FA01212000FFF7E8
:100E3000D7FA0123A340114A1360114BA400E550D7
:100E4000BFF35F8F00220B4B1A6086F3108870BDD2
:100E50000121A1400A4BA200D5500A4B20001A786C
:100E60008A4305491A70FFF7FFFA00212000FFF7B7
:100E7000B7FAE5E7280100D0150D001038600540ED
:100E8000080B0020970C0020F0B54F46D64646468A
:100E9000C0B507002E4C616A0D00A66A616AA942BE
:100EA000FAD18B4208D805D00120E0BCBA46B14641
:100EB000A846F0BDB242F7D9EFF3108A72B62548C2
:100EC00001680029FCD0BFF35F8F0125BD40224996
:100ED0001F4C8846097889462943C9B28C46414649
:100EE00060460870391D890065630A511B49B800C6
:100EF0004350216A0020294219D0616A0800A66A7D
:100F0000616A8142FAD18B4219D801D1B24216D816
:100F1000CC450BD00E4B1F221D625D6301233A406E
:100F200093400F4A136043464A461A700120BFF3AC
:100F30005F8F0022074B1A608AF31088B5E7002004
:100F4000BFF35F8F0022034B1A608AF31088ACE76F
:100F500000400540280100D0970C0020840C0020A0
:100F600080E200E0EFF3108C72B60A490B68002BA8
:100F7000FCD0BFF35F8F01238340074A0748136209
:100F800002789A430270BFF35F8F00230B608CF3EB
:100F900010887047280100D000400540970C0020C1
:100FA00070B506000D00140000291DD0002A12D0D3
:100FB00073688068984762006B0012195B1931688A
:100FC000033A033B002808D08A189570C818CB5CF8
:100FD000002B0BD10470280070BDCB189C708818B2
:100FE0008A5C002A05D105702000F5E75370047073
:100FF000F1E75A700570F7E710B583600023CCB2B3
:1010000043730133426004738373C4730068421CEA
:10101000012C05D90133DBB2137003329C42F9D1A4
:10102000FF230B405A00D318C01800230338437025
:1010300010BDC04670B505000C1E07D063000168E6
:101040001B19033BCB185A78002A01D1200070BD30
:10105000500080180338091800204E78487021008D
:1010600058702800FFF79CFF310004002800FFF7AC
:10107000E1FF0600002C20D00028E7D0320021003C
:101080006B68A86898477200630092191B19296859
:10109000033A033B002808D08A189470C818CB5C28
:1010A000002B00D053700670D0E7CB189E708818C4
:1010B0008A5C002A00D05A7004703400C6E7C0462B
:1010C000F0B557464546DE464E46E0B50D006F008A
:1010D00001687F19033F0400C85D83B00192CA19FB
:1010E000002850D043001B18033BCB185E78B44651
:1010F000002E1AD1019E002E42D0E67B002E04D095
:1011000073009B19CB18033B5D70A37B002B00D1B0
:10111000A573E57300282FD10023537003B0F0BCF2
:10112000BB46B246A946A046F0BD72006244033AEF
:101130008A185178884600215170894659703200CA
:1011400001002000FFF72CFF43468246002B07D00A
:101150005B0021684344033BCB185A78002A16D120
:10116000424651462000FFF71BFF2168019BCA1928
:10117000002BC2D10028CFD043001B18033BCB1853
:1011800000219970C8E7019B002BB6D1C4E750003D
:1011900080180338091848788346484648705870C4
:1011A00041462000FFF7FCFE594680462000FFF72D
:1011B00041FF414602002000FFF7F2FE8046CFE7E4
:1011C000F0B557464546DE464E46E0B583B0019140
:1011D000457B04006F0000687F19033FC15DC219A1
:1011E000002952D04B005B18033BC3185E78B4460D
:1011F000002E1CD1019E002E44D0E67B002E04D090
:1012000073009B19C318033B5D70A37B002B00D1B7
:10121000A573E573002931D1002328005370617351
:1012200003B0F0BCBB46B246A946A046F0BD720072
:101230006244033A821850788046002050708146FC
:10124000587032002000FFF7ABFE43468246002B69
:1012500007D05B0021684344033BCB185A78002A2F
:1012600017D1424651462000FFF79AFE019B01002C
:101270002068C219002BC0D10029CDD04B005B18CB
:10128000033BC31800209870C6E7019B002BB4D124
:10129000C2E750008018033809184878834648464A
:1012A0004870587041462000FFF77AFE5946804644
:1012B0002000FFF7BFFE414602002000FFF770FE4E
:1012C0008046CEE770B5050000292CD0437B8B42C9
:1012D0002ED04C0000686418033C0419A278002A40
:1012E00021D053009B18033BC25CC6188A4202D12E
:1012F0001BE0002A08D053009B18033BC3185A7800
:101300008A42F6D162785A70002301222800A37025
:101310006370FFF7D5FE697B02002800FFF740FEEF
:101320006873012000E0002070BD63783370EBE744
:1013300001221900FFF7C4FEF2E7C04610B50C20E9
:1013400082B000F0A9F9FFF707F8002810D0864B0B
:1013500086488649864A186059609860D960186145
:1013600059619861D961186259625A6202B010BD20
:10137000804CA06700F098F901227F4B1A60636CE3
:10138000012BFCD103227D4B1A607A4A936B012B0F
:10139000FCD1013301217A4A7A480093043300F0EA
:1013A00027F90523784A00930121784800F020F9B5
:1013B000774B5A68FF2A02D8802252005A60802256
:1013C0006E4B694C12011A602169002905D06069D1
:1013D00000F072FA01300138FDD1E0226C4B6D480B
:1013E00019680A40026002221968514001320A401D
:1013F000042102609A681142FCD08021664A0901EA
:101400001160802252005A60644B2361644B59681A
:10141000FF2900D85A6003220121574B1A60604A05
:1014200093681942FCD0E023106803405D480360D4
:10143000126803234A4002211340594A036093680B
:101440001942FCD08021584B090119608021574B6B
:10145000490051606361564B5A68FF2A00D85960B1
:101460008022544B12011A60E169002905D060699D
:1014700000F022FA01300138FDD1E0234C4A116816
:101480000B404D490B6080214C4B090119608021B4
:10149000364B49005160E361494B5A68FF2A00D836
:1014A00059608022474B12011A60216A002905D039
:1014B000606900F001FA01300138FDD1E023404AB3
:1014C00011680B4040490B608021404B09011960B5
:1014D00080235B0053608022244BD20223623C4B6A
:1014E0005968914200D25A6080223A4B12011A6028
:1014F000616A002905D0606900F0DEF90130013829
:10150000FDD1E023324A11680B4033490B60802142
:10151000324B090119608023DB025360144B636274
:101520002F4B5A68FF2A02D8802252005A6080222C
:101530002C4B12011A60A169002905D0606900F0E6
:10154000BBF901300138FDD1E023254A11680B4079
:1015500025490B608021254B0901196080235B0020
:101560005360124BA36101E7C0070020006CDC024E
:101570001BB70000008000403CB0004030B000408D
:10158000002F685900800240008C864700C002404E
:10159000308000403090004030A00040001BB70079
:1015A0003C8000403C9000403CA000404059730704
:1015B0005480004054B000405490004054A000407B
:1015C0006080004060B000406090004060A000403B
:1015D0006C8000406CB000406C9000406CA00040FB
:1015E0004880004048B000404890004048A000407B
:1015F000F8B504000C2017001D000E0000F05CF987
:1016000043011B1A9901C91AC90009188901380038
:1016100000F052F9069B29041B0319432368002B91
:1016200020DB194B194DE3185A42534180225201D5
:1016300094461B03164A63441360164A13601F0046
:10164000AA689743FBD1C023221D9B01134321228B
:101650002660A0601A602268002AFCDA0822E16095
:101660001A60F8BD3F2322681340B342D9D1A36862
:101670001B051B0D8342D4D1EE22E368D202134036
:101680008B42CED1EDE7C0460040FDBF00C0004018
:1016900000E0004000F000408023024A9B0003432A
:1016A000D362704700800540AA23064A1B011360DD
:1016B0002F230549D360054B19605368002BFCDAD2
:1016C0007047C0460040024000B0FA00006002408F
:1016D0002B4B2C4A70B51A602B4A2C4B2C491A60A4
:1016E00014008B689C43FBD12A4D2B4EB54208D287
:1016F000013E761BB60808CD984723000134B3425B
:10170000F9D1FFF71BFE254A204B1A60204A936847
:10171000DB43DB01DD09002BF9D14022204B214EB8
:10172000214C9A675A671A67DA66B44208D223686E
:1017300020000834002B1FD0FEF7FAFFB442F6D386
:101740001A4C1B4EC022B168200000F093F9B4601F
:10175000FEF72CFEFEF7C4FFFFF784F9154C164E7A
:10176000B44208D2013E361BB60808CC98472B007D
:1017700001359E42F9D170BDFEF7CCFFD5E7C046DA
:1017800000E00040BFCDFBFEFE7F3C0000F00040CB
:1017900000C00040A4070020B4070020FFFFFF01A5
:1017A00000F00140A40700209C070020000000205A
:1017B00000ED00E0B4070020C007002000BEFDE7F8
:1017C00010B5FFF7FBFFC0460FB400B5084883B063
:1017D00000F0ECF9049B002B07D005A9180001913B
:1017E00000F018F8034800F0E1F90120FFF7E6FFE8
:1017F000A41E0010B41E001010B50148FFF7E4FF4E
:10180000B81E001010B5002800D110BD00F082F9FC
:10181000FBE7C04610B5094A0300146884B0002CE9
:1018200008D0012200910648524203A9A047012096
:1018300004B010BD00F0BAF90020F9E7600C0020F8
:101840000518001001480421014B184750030020DF
:1018500075180010142310B50100188804331B8874
:10186000984710BD162310B50100188802331B8855
:10187000984710BDF8B54746CE4680B50F1E19D023
:1018800014239946043304000025012698464B464C
:101890001888434621681B88984701C4431E984115
:1018A000013540420640AF42F1D13000C0BCB946DC
:1018B000B046F8BD0126F8E7114A936F9B0813D292
:1018C00010665166002905D0FFE7FFE7FFE7516F7B
:1018D000106F704704B5002801D00020C04300F00D
:1018E000BFFA002104BDC046F0B5146E556E576FA7
:1018F000166FFFF7E5FF1466556657671667F0BD6C
:10190000000000D0132370B51D78012D15D010DD17
:101910001D48FFF7A7FF1D4C01008022200000F0AA
:10192000A9F8022D2DD01A48FFF794FF194B186023
:1019300070BD194B154CA364F5E7174B134C23608E
:101940006360A360E36023616361A361E361236279
:101950006362A362E36223636363A363E363236459
:101960006364A364E36423656365A365E365236639
:101970006366A366E36623676367A367E367A3649D
:10198000D1E7054BA364CEE753440000E8080020EC
:101990004C3300007C0C00209D19001007B56046F8
:1019A00001880A0A0230DF2AFAD1C9B2820804D3B8
:1019B000028840880004104300E00068014A50504B
:1019C000039007BDE8080020132310B512481C78C7
:1019D000FFF748FF0100012C0AD003DD80220F48E9
:1019E00000F048F80E48FFF735FF0E4B186010BDA9
:1019F0000A4C5422200000F03DF80B4B6365A365B0
:101A0000E36523666366A366E36623676367A3678C
:101A1000E3672362E361E5E753460000E80900203D
:101A20004C3300007C0C00202D1A001007B56046D6
:101A300001880A0A0230DF2AFAD1C9B2820804D327
:101A4000028840880004104300E00068014A5050BA
:101A5000039007BDE809002001480421014B184705
:101A60006003002075180010014B1B681847000028
:101A700060030020014B5B681847000060030020F2
:101A8000F0B5C64600B5437D07000D001600002BDB
:101A900038D0002A2EDD00216A1E90466A5C037D44
:101AA0004C1C00200A2A0CD0A64216D043461B5DCF
:101AB00021000D3B5A4253416A5CDBB24C1C0A2A9E
:101AC000F2D1002BF0D1814217DC022110483B6893
:101AD0009847A64207D02000E8E7864203DD311A86
:101AE0003B6828189847AD19013D2B780D3B5A42A9
:101AF00053413B7580BCB846F0BD091A3B682818B5
:101B00009847E2E70368110028009847F2E7C046CB
:101B10002C1F0010F0B5CE46474680B583B06B460B
:101B20000600DD1D2870FFF75FF900231A4A12181E
:101B30004B41802109068B4202D30122174B5242AE
:101B400017490800884600F093F9164B81461C6837
:101B5000002C14D0144F02E02469002C0FD023680D
:101B6000002BF9D03B68002B01D0A342F4D1200018
:101B700001222900FFF784FF2469002CEFD14B4696
:101B8000002B05D1300003B0C0BCB946B046F0BD53
:101B9000404600F05DF9F5E740420F00FFFFFF7F90
:101BA0009C070020580C00205C0C0020F0B5DE469D
:101BB00057464E464546E0B585B0070000F0AAF806
:101BC0000600FFF711F900232B4A12184B41802120
:101BD00009068B4202D30122284B524228490800B1
:101BE0008B4600F045F9274B01901C689A46002C63
:101BF0003BD0254B984602ABDD1D0A23994602E0F7
:101C00002469002C17D02368002BF9D043461B68A9
:101C1000002B01D0A342F3D1200032003900FFF79E
:101C20002FFF4B462000012229002B70FFF728FFD1
:101C30002469002CE7D1019B002B18D153461C6866
:101C4000002C06D06368002B0BD098472469002C29
:101C5000F8D1300005B0F0BCBB46B246A946A0465C
:101C6000F0BD2469002CEDD1F3E70028F1D05846EF
:101C700000F0EEF8E2E7C04640420F00FFFFFF7FB2
:101C80009C070020580C00205C0C002010B5024876
:101C900000F004F810BDC046740C002030B50025DB
:101CA00089B004000922002101A80095FFF7DCFE9D
:101CB0000922002105A80495FFF7D6FE4B236A46AA
:101CC0006846137004A90D2200F0BAF81521082205
:101CD00020006944FFF7CEFE09B030BD10B5010009
:101CE00000230022002000F043F810BD70B5074C1F
:101CF000074D641BA41005D0013CA300EB58984786
:101D0000002CF9D100F09AF870BDC046C007002041
:101D1000C007002010B583070AD00300032102E0AA
:101D200001330B4205D01A78002AF9D1181A10BDD8
:101D3000030019680C4A0D4C8A188A4322420FD1BD
:101D40005968094A04338A188A43224208D15968DB
:101D5000054A04338A188A432242F1D000E0013355
:101D60001A78002AFBD1E1E7FFFEFEFE808080802A
:101D7000F0B5D6464F4646469846264BC0B50600B7
:101D8000186891469A460F0000F054F8A422224B9E
:101D900052001B689D58002D32D053466C6818685D
:101DA0001F2C32DC002E0CD1631C0234A4006B60AB
:101DB000675100F041F80020E0BCBA46B146A846A1
:101DC000F0BD49468822A300EB189950C421490070
:101DD0008C46AC446146873AA2400968914611435B
:101DE000624611608421424649005A50022EDBD1DE
:101DF00029004A468D31FF310B6813430B60D3E74E
:101E00001D004D35FF359D50C7E700F015F8012046
:101E10004042D1E798070020301F0010034B10B557
:101E2000002B02D00248FFF759FF10BD0000000050
:101E3000ED1C00107047C0467047C046F8B5C0465C
:101E400001B40248844601BC604700BFF90100208C
:101E500001B40248844601BC604700BF5D01002018
:101E600001B40248844601BC604700BFB9020020AB
:101E700001B40248844601BC604700BFC100002095
:101E8000486172647761726520616C61726D2025B2
:101E90006420616C726561647920636C61696D6551
:101EA000640000000A2A2A2A2050414E4943202A71
:101EB0002A2A0A000A0000004861726420617373D4
:101EC0006572740052656C6561736500626F6F7452
:101ED000325F77323571303830000000312E352EC8
:101EE000300000007069636F0000000073656E735E
:101EF0006F725F74657374696E6700004665622077
:101F0000323720323032330006005250D3F075425F
:101F1000C41E001006005250E182887FCC1E0010C3
:101F200006005250BBFF3CB6E41E00100D0A000034
:041F3000700300201A
:101F3400081F0010141F001088020010201F00103A
:0C1F440094020010A0020010AC0200107B
:101F5000F0B5C646150000B504001E000268EFF398
:101F6000108172B61368002BFCD0BFF35F8F04237F
:101F7000E356002B2DDB2268BFF35F8F002010603B
:101F800081F31088D0221206127852B290469A42FB
:101F900003D1002080BCB846F0BD00270BE02368C9
:101FA000BFF35F8F1F6081F310882800310000F0BD
:101FB000CFF80028EDD12268EFF3108172B61368D4
:101FC000002BFCD0BFF35F8F23797F2BE7D94346EB
:101FD00002E0D0231B061B6823712368BFF35F8FC9
:101FE00000221A6081F310880120D3E70268EFF322
:101FF000108172B61368002BFCD0BFF35F8FFF23F4
:1020000003710368BFF35F8F00221A6081F31088A9
:1020100040BF704710B5084C2378002B0AD18023AD
:10202000064807495B051A68C25004338B42FAD14F
:102030000123237010BDC046940C0020180B001023
:102040000001001010B5014B984710BD190B00207E
:10205000034B1A68C0239B009343024A13607047E6
:102060000C8001400C900140054B1A6880239B00B6
:102070005340C02292001340024A13607047C0468A
:102080000C8001400C9001401423F0B5D6464F4619
:1020900046469A46814618880433C0B598460E00D5
:1020A0001B88264914009847534607001888434662
:1020B00023491B8898475346050018884346214901
:1020C0001B8898478046FFF7A5FFB847A847FFF74A
:1020D000CBFF221E20D0C02108270220490511E095
:1020E000002C14D0131B0D2B20D9002D0AD0230057
:1020F000002A05D00B6E013A3370130001362343DA
:10210000002B09D03D008B6A1D401842E8D1002DFC
:10211000EDD123001343F5D1FFF79AFFC047FFF736
:1021200091FFE0BCBA46B146A846F0BD4B461B78CD
:10213000013C0B6601239C46E144E8E74946000068
:1021400045580000464300007047C04600000000AC
:1021500001B40248844601BC604700BFB50C0010C2
:10216000100000000000000000000100000000005E
:10217000000000000000020000000000000000005D
:102180000000030000000000000000000000FF004D
:102190000000000001B5486801318E4600477046D6
:1021A00009380149884701BD2D060010340300207D
:1021B00000000000E8070020180C002000000000CC
:1021C00000000000280C00200000000000000000BB
:1021D00010000000000000000000000000000000EF
:1021E000503300004C3300005433000052330000E1
:1021F0004D5300004D4300005334000043340000B1
:10220000000000005C060020C40600202C0700200F
:1022100000000000000000000000000000000000BE
:1022200000000000000000000000000000000000AE
:10223000000000000000000000000000000000009E
:10224000000000000000000000000000000000008E
:10225000000000000000000000000000000000007E
:10226000000000000000000000000000000000006E
:10227000000000000000000000000000000000005E
:10228000000000000000000000000000000000004E
:10229000000000000000000000000000000000003E
:1022A000000000000000000001000000000000002D
:1022B0000E33CDAB34126DE6ECDE05000B000000F2
:1022C000000000000000000000000000000000000E
:1022D00000000000000000000000000000000000FE
:1022E00000000000000000000000000000000000EE
:1022F00000000000000000000000000000000000DE
:102620000000000000000000040B0020000000007B
:1026300000000000591A001045180010051900107C
:10264000C91900101D1E0010310300108D1C001050
:04000005100001E9FD
:00000001FF
